{
  "contractName": "SuppartToken",
  "abi": [
    {
      "inputs": [
        {
          "internalType": "uint256",
          "name": "_initialSupply",
          "type": "uint256"
        }
      ],
      "stateMutability": "nonpayable",
      "type": "constructor"
    },
    {
      "anonymous": false,
      "inputs": [
        {
          "indexed": true,
          "internalType": "address",
          "name": "owner",
          "type": "address"
        },
        {
          "indexed": true,
          "internalType": "address",
          "name": "spender",
          "type": "address"
        },
        {
          "indexed": false,
          "internalType": "uint256",
          "name": "value",
          "type": "uint256"
        }
      ],
      "name": "Approval",
      "type": "event"
    },
    {
      "anonymous": false,
      "inputs": [
        {
          "indexed": false,
          "internalType": "address",
          "name": "from",
          "type": "address"
        },
        {
          "indexed": false,
          "internalType": "address",
          "name": "to",
          "type": "address"
        },
        {
          "indexed": false,
          "internalType": "uint256",
          "name": "amount",
          "type": "uint256"
        }
      ],
      "name": "TokeSellEvent",
      "type": "event"
    },
    {
      "anonymous": false,
      "inputs": [
        {
          "indexed": false,
          "internalType": "address",
          "name": "from",
          "type": "address"
        },
        {
          "indexed": false,
          "internalType": "address",
          "name": "to",
          "type": "address"
        },
        {
          "indexed": false,
          "internalType": "uint256",
          "name": "amount",
          "type": "uint256"
        }
      ],
      "name": "TokenBuyEvent",
      "type": "event"
    },
    {
      "anonymous": false,
      "inputs": [
        {
          "indexed": true,
          "internalType": "address",
          "name": "from",
          "type": "address"
        },
        {
          "indexed": true,
          "internalType": "address",
          "name": "to",
          "type": "address"
        },
        {
          "indexed": false,
          "internalType": "uint256",
          "name": "value",
          "type": "uint256"
        }
      ],
      "name": "Transfer",
      "type": "event"
    },
    {
      "inputs": [
        {
          "internalType": "uint256",
          "name": "",
          "type": "uint256"
        }
      ],
      "name": "ProjectTotals",
      "outputs": [
        {
          "internalType": "string",
          "name": "name",
          "type": "string"
        },
        {
          "internalType": "uint256",
          "name": "total",
          "type": "uint256"
        }
      ],
      "stateMutability": "view",
      "type": "function",
      "constant": true
    },
    {
      "inputs": [
        {
          "internalType": "address",
          "name": "owner",
          "type": "address"
        },
        {
          "internalType": "address",
          "name": "spender",
          "type": "address"
        }
      ],
      "name": "allowance",
      "outputs": [
        {
          "internalType": "uint256",
          "name": "",
          "type": "uint256"
        }
      ],
      "stateMutability": "view",
      "type": "function",
      "constant": true
    },
    {
      "inputs": [
        {
          "internalType": "address",
          "name": "spender",
          "type": "address"
        },
        {
          "internalType": "uint256",
          "name": "amount",
          "type": "uint256"
        }
      ],
      "name": "approve",
      "outputs": [
        {
          "internalType": "bool",
          "name": "",
          "type": "bool"
        }
      ],
      "stateMutability": "nonpayable",
      "type": "function"
    },
    {
      "inputs": [
        {
          "internalType": "address",
          "name": "account",
          "type": "address"
        }
      ],
      "name": "balanceOf",
      "outputs": [
        {
          "internalType": "uint256",
          "name": "",
          "type": "uint256"
        }
      ],
      "stateMutability": "view",
      "type": "function",
      "constant": true
    },
    {
      "inputs": [],
      "name": "decimals",
      "outputs": [
        {
          "internalType": "uint8",
          "name": "",
          "type": "uint8"
        }
      ],
      "stateMutability": "view",
      "type": "function",
      "constant": true
    },
    {
      "inputs": [
        {
          "internalType": "address",
          "name": "spender",
          "type": "address"
        },
        {
          "internalType": "uint256",
          "name": "subtractedValue",
          "type": "uint256"
        }
      ],
      "name": "decreaseAllowance",
      "outputs": [
        {
          "internalType": "bool",
          "name": "",
          "type": "bool"
        }
      ],
      "stateMutability": "nonpayable",
      "type": "function"
    },
    {
      "inputs": [
        {
          "internalType": "address",
          "name": "spender",
          "type": "address"
        },
        {
          "internalType": "uint256",
          "name": "addedValue",
          "type": "uint256"
        }
      ],
      "name": "increaseAllowance",
      "outputs": [
        {
          "internalType": "bool",
          "name": "",
          "type": "bool"
        }
      ],
      "stateMutability": "nonpayable",
      "type": "function"
    },
    {
      "inputs": [],
      "name": "name",
      "outputs": [
        {
          "internalType": "string",
          "name": "",
          "type": "string"
        }
      ],
      "stateMutability": "view",
      "type": "function",
      "constant": true
    },
    {
      "inputs": [],
      "name": "symbol",
      "outputs": [
        {
          "internalType": "string",
          "name": "",
          "type": "string"
        }
      ],
      "stateMutability": "view",
      "type": "function",
      "constant": true
    },
    {
      "inputs": [],
      "name": "totalSupply",
      "outputs": [
        {
          "internalType": "uint256",
          "name": "",
          "type": "uint256"
        }
      ],
      "stateMutability": "view",
      "type": "function",
      "constant": true
    },
    {
      "inputs": [
        {
          "internalType": "address",
          "name": "recipient",
          "type": "address"
        },
        {
          "internalType": "uint256",
          "name": "amount",
          "type": "uint256"
        }
      ],
      "name": "transfer",
      "outputs": [
        {
          "internalType": "bool",
          "name": "",
          "type": "bool"
        }
      ],
      "stateMutability": "nonpayable",
      "type": "function"
    },
    {
      "inputs": [
        {
          "internalType": "address",
          "name": "sender",
          "type": "address"
        },
        {
          "internalType": "address",
          "name": "recipient",
          "type": "address"
        },
        {
          "internalType": "uint256",
          "name": "amount",
          "type": "uint256"
        }
      ],
      "name": "transferFrom",
      "outputs": [
        {
          "internalType": "bool",
          "name": "",
          "type": "bool"
        }
      ],
      "stateMutability": "nonpayable",
      "type": "function"
    },
    {
      "inputs": [
        {
          "internalType": "uint256",
          "name": "_amount",
          "type": "uint256"
        }
      ],
      "name": "buyToken",
      "outputs": [],
      "stateMutability": "payable",
      "type": "function",
      "payable": true
    },
    {
      "inputs": [
        {
          "internalType": "string",
          "name": "_projectName",
          "type": "string"
        },
        {
          "internalType": "uint256",
          "name": "_amount",
          "type": "uint256"
        }
      ],
      "name": "sellToken",
      "outputs": [],
      "stateMutability": "nonpayable",
      "type": "function"
    },
    {
      "inputs": [],
      "name": "withdrawEth",
      "outputs": [],
      "stateMutability": "nonpayable",
      "type": "function"
    },
    {
      "inputs": [
        {
          "internalType": "string",
          "name": "_projectName",
          "type": "string"
        }
      ],
      "name": "createSuppartProject",
      "outputs": [
        {
          "internalType": "bool",
          "name": "result",
          "type": "bool"
        },
        {
          "internalType": "uint256",
          "name": "id",
          "type": "uint256"
        }
      ],
      "stateMutability": "nonpayable",
      "type": "function"
    },
    {
      "inputs": [],
      "name": "getProjectTotals",
      "outputs": [
        {
          "components": [
            {
              "internalType": "string",
              "name": "name",
              "type": "string"
            },
            {
              "internalType": "uint256",
              "name": "total",
              "type": "uint256"
            }
          ],
          "internalType": "struct SuppartToken.Project[]",
          "name": "",
          "type": "tuple[]"
        }
      ],
      "stateMutability": "view",
      "type": "function",
      "constant": true
    },
    {
      "inputs": [
        {
          "internalType": "address",
          "name": "recipient",
          "type": "address"
        },
        {
          "internalType": "uint256",
          "name": "amount",
          "type": "uint256"
        }
      ],
      "name": "mint",
      "outputs": [],
      "stateMutability": "nonpayable",
      "type": "function"
    }
  ],
  "bytecode": "0x60806040523480156200001157600080fd5b5060405162002f3238038062002f3283398181016040528101906200003791906200037b565b6040518060400160405280600c81526020017f53757070617274546f6b656e00000000000000000000000000000000000000008152506040518060400160405280600481526020017f53415254000000000000000000000000000000000000000000000000000000008152508160039080519060200190620000bb929190620002b4565b508060049080519060200190620000d4929190620002b4565b505050620000e933826200013160201b60201c565b33600760006101000a81548173ffffffffffffffffffffffffffffffffffffffff021916908373ffffffffffffffffffffffffffffffffffffffff160217905550506200056d565b600073ffffffffffffffffffffffffffffffffffffffff168273ffffffffffffffffffffffffffffffffffffffff161415620001a4576040517f08c379a00000000000000000000000000000000000000000000000000000000081526004016200019b90620003df565b60405180910390fd5b620001b860008383620002aa60201b60201c565b8060026000828254620001cc91906200042f565b92505081905550806000808473ffffffffffffffffffffffffffffffffffffffff1673ffffffffffffffffffffffffffffffffffffffff16815260200190815260200160002060008282546200022391906200042f565b925050819055508173ffffffffffffffffffffffffffffffffffffffff16600073ffffffffffffffffffffffffffffffffffffffff167fddf252ad1be2c89b69c2b068fc378daa952ba7f163c4a11628f55a4df523b3ef836040516200028a919062000401565b60405180910390a3620002a660008383620002af60201b60201c565b5050565b505050565b505050565b828054620002c29062000496565b90600052602060002090601f016020900481019282620002e6576000855562000332565b82601f106200030157805160ff191683800117855562000332565b8280016001018555821562000332579182015b828111156200033157825182559160200191906001019062000314565b5b50905062000341919062000345565b5090565b5b808211156200036057600081600090555060010162000346565b5090565b600081519050620003758162000553565b92915050565b6000602082840312156200038e57600080fd5b60006200039e8482850162000364565b91505092915050565b6000620003b6601f836200041e565b9150620003c3826200052a565b602082019050919050565b620003d9816200048c565b82525050565b60006020820190508181036000830152620003fa81620003a7565b9050919050565b6000602082019050620004186000830184620003ce565b92915050565b600082825260208201905092915050565b60006200043c826200048c565b915062000449836200048c565b9250827fffffffffffffffffffffffffffffffffffffffffffffffffffffffffffffffff03821115620004815762000480620004cc565b5b828201905092915050565b6000819050919050565b60006002820490506001821680620004af57607f821691505b60208210811415620004c657620004c5620004fb565b5b50919050565b7f4e487b7100000000000000000000000000000000000000000000000000000000600052601160045260246000fd5b7f4e487b7100000000000000000000000000000000000000000000000000000000600052602260045260246000fd5b7f45524332303a206d696e7420746f20746865207a65726f206164647265737300600082015250565b6200055e816200048c565b81146200056a57600080fd5b50565b6129b5806200057d6000396000f3fe6080604052600436106101095760003560e01c80637027bb5611610095578063a0ef91df11610064578063a0ef91df14610385578063a457c2d71461039c578063a9059cbb146103d9578063dd62ed3e14610416578063fc721c751461045357610109565b80637027bb56146102b657806370a08231146102f457806393990aa61461033157806395d89b411461035a57610109565b806323b872dd116100dc57806323b872dd146101cc5780632d296bf114610209578063313ce56714610225578063395093511461025057806340c10f191461028d57610109565b806306fdde031461010e578063095ea7b3146101395780631066f09e1461017657806318160ddd146101a1575b600080fd5b34801561011a57600080fd5b50610123610491565b604051610130919061203e565b60405180910390f35b34801561014557600080fd5b50610160600480360381019061015b9190611aa4565b610523565b60405161016d9190611ffa565b60405180910390f35b34801561018257600080fd5b5061018b610541565b6040516101989190611fd8565b60405180910390f35b3480156101ad57600080fd5b506101b661063c565b6040516101c39190612210565b60405180910390f35b3480156101d857600080fd5b506101f360048036038101906101ee9190611a55565b610646565b6040516102009190611ffa565b60405180910390f35b610223600480360381019061021e9190611b75565b61073e565b005b34801561023157600080fd5b5061023a6108d9565b604051610247919061222b565b60405180910390f35b34801561025c57600080fd5b5061027760048036038101906102729190611aa4565b6108e2565b6040516102849190611ffa565b60405180910390f35b34801561029957600080fd5b506102b460048036038101906102af9190611aa4565b61098e565b005b3480156102c257600080fd5b506102dd60048036038101906102d89190611ae0565b610a2c565b6040516102eb929190612015565b60405180910390f35b34801561030057600080fd5b5061031b600480360381019061031691906119f0565b610b14565b6040516103289190612210565b60405180910390f35b34801561033d57600080fd5b5061035860048036038101906103539190611b21565b610b5c565b005b34801561036657600080fd5b5061036f610e9d565b60405161037c919061203e565b60405180910390f35b34801561039157600080fd5b5061039a610f2f565b005b3480156103a857600080fd5b506103c360048036038101906103be9190611aa4565b611002565b6040516103d09190611ffa565b60405180910390f35b3480156103e557600080fd5b5061040060048036038101906103fb9190611aa4565b6110ed565b60405161040d9190611ffa565b60405180910390f35b34801561042257600080fd5b5061043d60048036038101906104389190611a19565b61110b565b60405161044a9190612210565b60405180910390f35b34801561045f57600080fd5b5061047a60048036038101906104759190611b75565b611192565b604051610488929190612060565b60405180910390f35b6060600380546104a090612479565b80601f01602080910402602001604051908101604052809291908181526020018280546104cc90612479565b80156105195780601f106104ee57610100808354040283529160200191610519565b820191906000526020600020905b8154815290600101906020018083116104fc57829003601f168201915b5050505050905090565b600061053761053061124e565b8484611256565b6001905092915050565b60606006805480602002602001604051908101604052809291908181526020016000905b82821015610633578382906000526020600020906002020160405180604001604052908160008201805461059890612479565b80601f01602080910402602001604051908101604052809291908181526020018280546105c490612479565b80156106115780601f106105e657610100808354040283529160200191610611565b820191906000526020600020905b8154815290600101906020018083116105f457829003601f168201915b5050505050815260200160018201548152505081526020019060010190610565565b50505050905090565b6000600254905090565b6000610653848484611421565b6000600160008673ffffffffffffffffffffffffffffffffffffffff1673ffffffffffffffffffffffffffffffffffffffff168152602001908152602001600020600061069e61124e565b73ffffffffffffffffffffffffffffffffffffffff1673ffffffffffffffffffffffffffffffffffffffff1681526020019081526020016000205490508281101561071e576040517f08c379a000000000000000000000000000000000000000000000000000000000815260040161071590612130565b60405180910390fd5b6107328561072a61124e565b858403611256565b60019150509392505050565b60008111610781576040517f08c379a0000000000000000000000000000000000000000000000000000000008152600401610778906121b0565b60405180910390fd5b60008060006040518060400160405280600881526020017f70726f6a6563743100000000000000000000000000000000000000000000000081525090506107eb600760009054906101000a900473ffffffffffffffffffffffffffffffffffffffff163386610646565b506107f5816116a2565b8093508194505050821561086a57836006838154811061083e577f4e487b7100000000000000000000000000000000000000000000000000000000600052603260045260246000fd5b9060005260206000209060020201600101600082825461085e9190612322565b92505081905550610876565b61087381610a2c565b50505b7f0c1cc81830bc581fcd6c337a383ffcef5f7c5784f58ba6f095a59ddebbe8fe55600760009054906101000a900473ffffffffffffffffffffffffffffffffffffffff1633866040516108cb93929190611f6a565b60405180910390a150505050565b60006012905090565b60006109846108ef61124e565b8484600160006108fd61124e565b73ffffffffffffffffffffffffffffffffffffffff1673ffffffffffffffffffffffffffffffffffffffff16815260200190815260200160002060008873ffffffffffffffffffffffffffffffffffffffff1673ffffffffffffffffffffffffffffffffffffffff1681526020019081526020016000205461097f9190612322565b611256565b6001905092915050565b600760009054906101000a900473ffffffffffffffffffffffffffffffffffffffff1673ffffffffffffffffffffffffffffffffffffffff163373ffffffffffffffffffffffffffffffffffffffff1614610a1e576040517f08c379a0000000000000000000000000000000000000000000000000000000008152600401610a15906120b0565b60405180910390fd5b610a288282611751565b5050565b6000806000610a3a846116a2565b50809150506000151581151514610a86576040517f08c379a0000000000000000000000000000000000000000000000000000000008152600401610a7d90612150565b60405180910390fd5b600060405180604001604052808681526020016000815250905060068190806001815401808255809150506001900390600052602060002090600202016000909190919091506000820151816000019080519060200190610ae89291906118bb565b506020820151816001015550506001600680549050610b079190612378565b9250600193505050915091565b60008060008373ffffffffffffffffffffffffffffffffffffffff1673ffffffffffffffffffffffffffffffffffffffff168152602001908152602001600020549050919050565b600080610b68846116a2565b80925081935050506001151582151514610bb7576040517f08c379a0000000000000000000000000000000000000000000000000000000008152600401610bae90612110565b60405180910390fd5b6000600560003373ffffffffffffffffffffffffffffffffffffffff1673ffffffffffffffffffffffffffffffffffffffff168152602001908152602001600020805480602002602001604051908101604052809291908181526020016000905b82821015610ce65783829060005260206000209060020201604051806040016040529081600082018054610c4b90612479565b80601f0160208091040260200160405190810160405280929190818152602001828054610c7790612479565b8015610cc45780601f10610c9957610100808354040283529160200191610cc4565b820191906000526020600020905b815481529060010190602001808311610ca757829003601f168201915b5050505050815260200160018201548152505081526020019060010190610c18565b50505050905060005b8151811015610dbf578580519060200120828281518110610d39577f4e487b7100000000000000000000000000000000000000000000000000000000600052603260045260246000fd5b602002602001015160000151805190602001201415610dac5784828281518110610d8c577f4e487b7100000000000000000000000000000000000000000000000000000000600052603260045260246000fd5b6020026020010151602001818151610da49190612378565b915081815250505b8080610db7906124dc565b915050610cef565b5083600860003373ffffffffffffffffffffffffffffffffffffffff1673ffffffffffffffffffffffffffffffffffffffff16815260200190815260200160002081905550610e30600760009054906101000a900473ffffffffffffffffffffffffffffffffffffffff16856110ed565b50610e39610f2f565b7fc2738af0356567eb933732e08b258512cebe84f541c47a53b47839930688038533600760009054906101000a900473ffffffffffffffffffffffffffffffffffffffff1686604051610e8e93929190611fa1565b60405180910390a15050505050565b606060048054610eac90612479565b80601f0160208091040260200160405190810160405280929190818152602001828054610ed890612479565b8015610f255780601f10610efa57610100808354040283529160200191610f25565b820191906000526020600020905b815481529060010190602001808311610f0857829003601f168201915b5050505050905090565b6000600860003373ffffffffffffffffffffffffffffffffffffffff1673ffffffffffffffffffffffffffffffffffffffff1681526020019081526020016000205490506000600860003373ffffffffffffffffffffffffffffffffffffffff1673ffffffffffffffffffffffffffffffffffffffff168152602001908152602001600020819055503373ffffffffffffffffffffffffffffffffffffffff166108fc829081150290604051600060405180830381858888f19350505050158015610ffe573d6000803e3d6000fd5b5050565b6000806001600061101161124e565b73ffffffffffffffffffffffffffffffffffffffff1673ffffffffffffffffffffffffffffffffffffffff16815260200190815260200160002060008573ffffffffffffffffffffffffffffffffffffffff1673ffffffffffffffffffffffffffffffffffffffff168152602001908152602001600020549050828110156110ce576040517f08c379a00000000000000000000000000000000000000000000000000000000081526004016110c5906121d0565b60405180910390fd5b6110e26110d961124e565b85858403611256565b600191505092915050565b60006111016110fa61124e565b8484611421565b6001905092915050565b6000600160008473ffffffffffffffffffffffffffffffffffffffff1673ffffffffffffffffffffffffffffffffffffffff16815260200190815260200160002060008373ffffffffffffffffffffffffffffffffffffffff1673ffffffffffffffffffffffffffffffffffffffff16815260200190815260200160002054905092915050565b600681815481106111a257600080fd5b90600052602060002090600202016000915090508060000180546111c590612479565b80601f01602080910402602001604051908101604052809291908181526020018280546111f190612479565b801561123e5780601f106112135761010080835404028352916020019161123e565b820191906000526020600020905b81548152906001019060200180831161122157829003601f168201915b5050505050908060010154905082565b600033905090565b600073ffffffffffffffffffffffffffffffffffffffff168373ffffffffffffffffffffffffffffffffffffffff1614156112c6576040517f08c379a00000000000000000000000000000000000000000000000000000000081526004016112bd90612190565b60405180910390fd5b600073ffffffffffffffffffffffffffffffffffffffff168273ffffffffffffffffffffffffffffffffffffffff161415611336576040517f08c379a000000000000000000000000000000000000000000000000000000000815260040161132d906120d0565b60405180910390fd5b80600160008573ffffffffffffffffffffffffffffffffffffffff1673ffffffffffffffffffffffffffffffffffffffff16815260200190815260200160002060008473ffffffffffffffffffffffffffffffffffffffff1673ffffffffffffffffffffffffffffffffffffffff168152602001908152602001600020819055508173ffffffffffffffffffffffffffffffffffffffff168373ffffffffffffffffffffffffffffffffffffffff167f8c5be1e5ebec7d5bd14f71427d1e84f3dd0314c0f7b2291e5b200ac8c7c3b925836040516114149190612210565b60405180910390a3505050565b600073ffffffffffffffffffffffffffffffffffffffff168373ffffffffffffffffffffffffffffffffffffffff161415611491576040517f08c379a000000000000000000000000000000000000000000000000000000000815260040161148890612170565b60405180910390fd5b600073ffffffffffffffffffffffffffffffffffffffff168273ffffffffffffffffffffffffffffffffffffffff161415611501576040517f08c379a00000000000000000000000000000000000000000000000000000000081526004016114f890612090565b60405180910390fd5b61150c8383836118b1565b60008060008573ffffffffffffffffffffffffffffffffffffffff1673ffffffffffffffffffffffffffffffffffffffff16815260200190815260200160002054905081811015611592576040517f08c379a0000000000000000000000000000000000000000000000000000000008152600401611589906120f0565b60405180910390fd5b8181036000808673ffffffffffffffffffffffffffffffffffffffff1673ffffffffffffffffffffffffffffffffffffffff16815260200190815260200160002081905550816000808573ffffffffffffffffffffffffffffffffffffffff1673ffffffffffffffffffffffffffffffffffffffff16815260200190815260200160002060008282546116259190612322565b925050819055508273ffffffffffffffffffffffffffffffffffffffff168473ffffffffffffffffffffffffffffffffffffffff167fddf252ad1be2c89b69c2b068fc378daa952ba7f163c4a11628f55a4df523b3ef846040516116899190612210565b60405180910390a361169c8484846118b6565b50505050565b60008060005b600680549050811015611743578380519060200120600682815481106116f7577f4e487b7100000000000000000000000000000000000000000000000000000000600052603260045260246000fd5b90600052602060002090600202016000016040516117159190611f53565b6040518091039020141561173057600181925092505061174c565b808061173b906124dc565b9150506116a8565b50600080915091505b915091565b600073ffffffffffffffffffffffffffffffffffffffff168273ffffffffffffffffffffffffffffffffffffffff1614156117c1576040517f08c379a00000000000000000000000000000000000000000000000000000000081526004016117b8906121f0565b60405180910390fd5b6117cd600083836118b1565b80600260008282546117df9190612322565b92505081905550806000808473ffffffffffffffffffffffffffffffffffffffff1673ffffffffffffffffffffffffffffffffffffffff16815260200190815260200160002060008282546118349190612322565b925050819055508173ffffffffffffffffffffffffffffffffffffffff16600073ffffffffffffffffffffffffffffffffffffffff167fddf252ad1be2c89b69c2b068fc378daa952ba7f163c4a11628f55a4df523b3ef836040516118999190612210565b60405180910390a36118ad600083836118b6565b5050565b505050565b505050565b8280546118c790612479565b90600052602060002090601f0160209004810192826118e95760008555611930565b82601f1061190257805160ff1916838001178555611930565b82800160010185558215611930579182015b8281111561192f578251825591602001919060010190611914565b5b50905061193d9190611941565b5090565b5b8082111561195a576000816000905550600101611942565b5090565b600061197161196c8461226b565b612246565b90508281526020810184848401111561198957600080fd5b611994848285612437565b509392505050565b6000813590506119ab81612951565b92915050565b600082601f8301126119c257600080fd5b81356119d284826020860161195e565b91505092915050565b6000813590506119ea81612968565b92915050565b600060208284031215611a0257600080fd5b6000611a108482850161199c565b91505092915050565b60008060408385031215611a2c57600080fd5b6000611a3a8582860161199c565b9250506020611a4b8582860161199c565b9150509250929050565b600080600060608486031215611a6a57600080fd5b6000611a788682870161199c565b9350506020611a898682870161199c565b9250506040611a9a868287016119db565b9150509250925092565b60008060408385031215611ab757600080fd5b6000611ac58582860161199c565b9250506020611ad6858286016119db565b9150509250929050565b600060208284031215611af257600080fd5b600082013567ffffffffffffffff811115611b0c57600080fd5b611b18848285016119b1565b91505092915050565b60008060408385031215611b3457600080fd5b600083013567ffffffffffffffff811115611b4e57600080fd5b611b5a858286016119b1565b9250506020611b6b858286016119db565b9150509250929050565b600060208284031215611b8757600080fd5b6000611b95848285016119db565b91505092915050565b6000611baa8383611ee9565b905092915050565b611bbb81612401565b82525050565b611bca816123ac565b82525050565b6000611bdb826122c1565b611be581856122e4565b935083602082028501611bf78561229c565b8060005b85811015611c335784840389528151611c148582611b9e565b9450611c1f836122d7565b925060208a01995050600181019050611bfb565b50829750879550505050505092915050565b611c4e816123be565b82525050565b60008154611c6181612479565b611c6b81866122f5565b94506001821660008114611c865760018114611c9757611cca565b60ff19831686528186019350611cca565b611ca0856122ac565b60005b83811015611cc257815481890152600182019150602081019050611ca3565b838801955050505b50505092915050565b6000611cde826122cc565b611ce88185612300565b9350611cf8818560208601612446565b611d01816125b2565b840191505092915050565b6000611d17826122cc565b611d218185612311565b9350611d31818560208601612446565b611d3a816125b2565b840191505092915050565b6000611d52602383612311565b9150611d5d826125c3565b604082019050919050565b6000611d75603083612311565b9150611d8082612612565b604082019050919050565b6000611d98602283612311565b9150611da382612661565b604082019050919050565b6000611dbb602683612311565b9150611dc6826126b0565b604082019050919050565b6000611dde602583612311565b9150611de9826126ff565b604082019050919050565b6000611e01602883612311565b9150611e0c8261274e565b604082019050919050565b6000611e24602a83612311565b9150611e2f8261279d565b604082019050919050565b6000611e47602583612311565b9150611e52826127ec565b604082019050919050565b6000611e6a602483612311565b9150611e758261283b565b604082019050919050565b6000611e8d602c83612311565b9150611e988261288a565b604082019050919050565b6000611eb0602583612311565b9150611ebb826128d9565b604082019050919050565b6000611ed3601f83612311565b9150611ede82612928565b602082019050919050565b60006040830160008301518482036000860152611f068282611cd3565b9150506020830151611f1b6020860182611f26565b508091505092915050565b611f2f816123ea565b82525050565b611f3e816123ea565b82525050565b611f4d816123f4565b82525050565b6000611f5f8284611c54565b915081905092915050565b6000606082019050611f7f6000830186611bb2565b611f8c6020830185611bc1565b611f996040830184611f35565b949350505050565b6000606082019050611fb66000830186611bc1565b611fc36020830185611bb2565b611fd06040830184611f35565b949350505050565b60006020820190508181036000830152611ff28184611bd0565b905092915050565b600060208201905061200f6000830184611c45565b92915050565b600060408201905061202a6000830185611c45565b6120376020830184611f35565b9392505050565b600060208201905081810360008301526120588184611d0c565b905092915050565b6000604082019050818103600083015261207a8185611d0c565b90506120896020830184611f35565b9392505050565b600060208201905081810360008301526120a981611d45565b9050919050565b600060208201905081810360008301526120c981611d68565b9050919050565b600060208201905081810360008301526120e981611d8b565b9050919050565b6000602082019050818103600083015261210981611dae565b9050919050565b6000602082019050818103600083015261212981611dd1565b9050919050565b6000602082019050818103600083015261214981611df4565b9050919050565b6000602082019050818103600083015261216981611e17565b9050919050565b6000602082019050818103600083015261218981611e3a565b9050919050565b600060208201905081810360008301526121a981611e5d565b9050919050565b600060208201905081810360008301526121c981611e80565b9050919050565b600060208201905081810360008301526121e981611ea3565b9050919050565b6000602082019050818103600083015261220981611ec6565b9050919050565b60006020820190506122256000830184611f35565b92915050565b60006020820190506122406000830184611f44565b92915050565b6000612250612261565b905061225c82826124ab565b919050565b6000604051905090565b600067ffffffffffffffff82111561228657612285612583565b5b61228f826125b2565b9050602081019050919050565b6000819050602082019050919050565b60008190508160005260206000209050919050565b600081519050919050565b600081519050919050565b6000602082019050919050565b600082825260208201905092915050565b600081905092915050565b600082825260208201905092915050565b600082825260208201905092915050565b600061232d826123ea565b9150612338836123ea565b9250827fffffffffffffffffffffffffffffffffffffffffffffffffffffffffffffffff0382111561236d5761236c612525565b5b828201905092915050565b6000612383826123ea565b915061238e836123ea565b9250828210156123a1576123a0612525565b5b828203905092915050565b60006123b7826123ca565b9050919050565b60008115159050919050565b600073ffffffffffffffffffffffffffffffffffffffff82169050919050565b6000819050919050565b600060ff82169050919050565b600061240c82612413565b9050919050565b600061241e82612425565b9050919050565b6000612430826123ca565b9050919050565b82818337600083830152505050565b60005b83811015612464578082015181840152602081019050612449565b83811115612473576000848401525b50505050565b6000600282049050600182168061249157607f821691505b602082108114156124a5576124a4612554565b5b50919050565b6124b4826125b2565b810181811067ffffffffffffffff821117156124d3576124d2612583565b5b80604052505050565b60006124e7826123ea565b91507fffffffffffffffffffffffffffffffffffffffffffffffffffffffffffffffff82141561251a57612519612525565b5b600182019050919050565b7f4e487b7100000000000000000000000000000000000000000000000000000000600052601160045260246000fd5b7f4e487b7100000000000000000000000000000000000000000000000000000000600052602260045260246000fd5b7f4e487b7100000000000000000000000000000000000000000000000000000000600052604160045260246000fd5b6000601f19601f8301169050919050565b7f45524332303a207472616e7366657220746f20746865207a65726f206164647260008201527f6573730000000000000000000000000000000000000000000000000000000000602082015250565b7f596f7520646f206e6f742068617665207065726d697373696f6e20746f206d6960008201527f6e7420746865736520746f6b656e732100000000000000000000000000000000602082015250565b7f45524332303a20617070726f766520746f20746865207a65726f20616464726560008201527f7373000000000000000000000000000000000000000000000000000000000000602082015250565b7f45524332303a207472616e7366657220616d6f756e742065786365656473206260008201527f616c616e63650000000000000000000000000000000000000000000000000000602082015250565b7f596f75206d7573742070726f7669646520612076616c6964205f70726f6a656360008201527f744e616d65000000000000000000000000000000000000000000000000000000602082015250565b7f45524332303a207472616e7366657220616d6f756e742065786365656473206160008201527f6c6c6f77616e6365000000000000000000000000000000000000000000000000602082015250565b7f546865726520697320616c726561647920612070726f6a65637420776974682060008201527f74686973206e616d652e00000000000000000000000000000000000000000000602082015250565b7f45524332303a207472616e736665722066726f6d20746865207a65726f20616460008201527f6472657373000000000000000000000000000000000000000000000000000000602082015250565b7f45524332303a20617070726f76652066726f6d20746865207a65726f2061646460008201527f7265737300000000000000000000000000000000000000000000000000000000602082015250565b7f496e636f727265637420616d6f756e742c206d757374206265206120706f736960008201527f7469766520616d6f756e742e0000000000000000000000000000000000000000602082015250565b7f45524332303a2064656372656173656420616c6c6f77616e63652062656c6f7760008201527f207a65726f000000000000000000000000000000000000000000000000000000602082015250565b7f45524332303a206d696e7420746f20746865207a65726f206164647265737300600082015250565b61295a816123ac565b811461296557600080fd5b50565b612971816123ea565b811461297c57600080fd5b5056fea26469706673582212203f246b9ce7f313818898bd6cf96fbac3968cc5744c126df5fbe5ff62176ca91d64736f6c63430008010033",
  "immutableReferences": {},
  "source": "// SPDX-License-Identifier: MIT\npragma solidity ^0.8.1;\n\nimport \"@openzeppelin/contracts/token/ERC20/ERC20.sol\";\n\ncontract SuppartToken is ERC20 {\n    \n    modifier onlyOwner {\n        require(msg.sender == owner, \"You do not have permission to mint these tokens!\");\n        _;\n    }\n\n    event TokenBuyEvent (\n        address from,\n        address to,\n        uint256 amount\n    );\n    \n    event TokeSellEvent (\n        address from,\n        address to,\n        uint256 amount\n    );\n    \n    struct Project {\n        string name;\n        uint total;\n    }\n    \n    struct AddressFunding {\n        string name;\n        uint total;\n    }\n    \n    mapping(address => AddressFunding[]) AddressProjects;\n    Project[] public ProjectTotals;\n    \n    address payable owner;\n    mapping (address => uint256) pendingWithdrawals;\n    \n\n    constructor(uint256 _initialSupply) ERC20(\"SuppartToken\", \"SART\" ) {\n        _mint(msg.sender, _initialSupply);\n        owner = payable(msg.sender);\n    }\n\n    function buyToken(uint256 _amount) external payable {\n        \n        require(_amount > 0, \"Incorrect amount, must be a positive amount.\");\n        //require(_projectName, \"You must provide a project_name\");\n        \n        bool foundproject;\n        uint project_index;\n\n        string memory _projectName = \"project1\";\n        \n        transferFrom(owner, msg.sender, _amount);\n        \n        (foundproject, project_index) = getProjectIndex(_projectName);\n        \n        if(foundproject) {\n            ProjectTotals[project_index].total += _amount;\n        } else {\n            createSuppartProject(_projectName);\n        }\n        \n        emit TokenBuyEvent(owner, msg.sender, _amount);\n    }\n    \n    function sellToken(string memory _projectName, uint256 _amount) public {\n        \n        bool foundproject;\n        uint project_index;\n        \n        (foundproject, project_index) = getProjectIndex(_projectName);\n        \n        require(foundproject == true, 'You must provide a valid _projectName');\n        \n        AddressFunding[] memory addressfunding = AddressProjects[msg.sender];\n        \n        for(uint i = 0; i< addressfunding.length; i++) {\n            \n            if(keccak256(bytes(addressfunding[i].name)) == keccak256(bytes(_projectName))){\n                \n                //found project for this address\n                addressfunding[i].total -= _amount;\n                \n            }\n        }\n        \n        pendingWithdrawals[msg.sender] = _amount;\n        \n        transfer(owner, _amount);\n        \n        withdrawEth();\n        \n        emit TokeSellEvent(msg.sender, owner, _amount);\n    }\n    \n    function withdrawEth() public {\n        uint256 amount = pendingWithdrawals[msg.sender];\n        // Pending refund zerod before to prevent re-entrancy attacks\n        pendingWithdrawals[msg.sender] = 0;\n        payable(msg.sender).transfer(amount);\n    }\n    \n    function createSuppartProject(string memory _projectName) public returns(bool result, uint id){ \n        bool foundproject;\n        \n        (foundproject, ) = getProjectIndex(_projectName);\n        \n        require(foundproject == false, \"There is already a project with this name.\");\n        \n        Project memory _newProject = Project(_projectName, 0);\n            \n        ProjectTotals.push(_newProject);\n        \n        id = ProjectTotals.length - 1;\n        \n        return (true, id);\n    }\n    \n    function getProjectIndex(string memory project_name) internal view returns(bool foundproject, uint project_index){\n        for(uint i = 0; i< ProjectTotals.length; i++) {\n            \n            if(keccak256(bytes(ProjectTotals[i].name)) == keccak256(bytes(project_name))){\n                return (true, i);\n            }\n        }\n        return (false, 0);\n    }\n\n    function getProjectTotals() public view returns(Project[] memory) {\n        return ProjectTotals;\n    }\n    \n    function mint(address recipient, uint amount) public onlyOwner {\n        _mint(recipient, amount);\n    }\n\n}\n",
  "sourcePath": "/Users/miguelsierra/development/fintech/project-3/suppart/contracts/SuppartToken.sol",
  "compiler": {
    "name": "solc",
    "version": "0.8.1+commit.df193b15.Emscripten.clang"
  },
  "schemaVersion": "3.4.3",
  "updatedAt": "2021-11-20T01:59:25.289Z",
  "networkType": "ethereum",
  "devdoc": {
    "kind": "dev",
    "methods": {
      "allowance(address,address)": {
        "details": "See {IERC20-allowance}."
      },
      "approve(address,uint256)": {
        "details": "See {IERC20-approve}. Requirements: - `spender` cannot be the zero address."
      },
      "balanceOf(address)": {
        "details": "See {IERC20-balanceOf}."
      },
      "decimals()": {
        "details": "Returns the number of decimals used to get its user representation. For example, if `decimals` equals `2`, a balance of `505` tokens should be displayed to a user as `5.05` (`505 / 10 ** 2`). Tokens usually opt for a value of 18, imitating the relationship between Ether and Wei. This is the value {ERC20} uses, unless this function is overridden; NOTE: This information is only used for _display_ purposes: it in no way affects any of the arithmetic of the contract, including {IERC20-balanceOf} and {IERC20-transfer}."
      },
      "decreaseAllowance(address,uint256)": {
        "details": "Atomically decreases the allowance granted to `spender` by the caller. This is an alternative to {approve} that can be used as a mitigation for problems described in {IERC20-approve}. Emits an {Approval} event indicating the updated allowance. Requirements: - `spender` cannot be the zero address. - `spender` must have allowance for the caller of at least `subtractedValue`."
      },
      "increaseAllowance(address,uint256)": {
        "details": "Atomically increases the allowance granted to `spender` by the caller. This is an alternative to {approve} that can be used as a mitigation for problems described in {IERC20-approve}. Emits an {Approval} event indicating the updated allowance. Requirements: - `spender` cannot be the zero address."
      },
      "name()": {
        "details": "Returns the name of the token."
      },
      "symbol()": {
        "details": "Returns the symbol of the token, usually a shorter version of the name."
      },
      "totalSupply()": {
        "details": "See {IERC20-totalSupply}."
      },
      "transfer(address,uint256)": {
        "details": "See {IERC20-transfer}. Requirements: - `recipient` cannot be the zero address. - the caller must have a balance of at least `amount`."
      },
      "transferFrom(address,address,uint256)": {
        "details": "See {IERC20-transferFrom}. Emits an {Approval} event indicating the updated allowance. This is not required by the EIP. See the note at the beginning of {ERC20}. Requirements: - `sender` and `recipient` cannot be the zero address. - `sender` must have a balance of at least `amount`. - the caller must have allowance for ``sender``'s tokens of at least `amount`."
      }
    },
    "version": 1
  },
  "userdoc": {
    "kind": "user",
    "methods": {},
    "version": 1
  }
}