{
  "contractName": "SuppartToken",
  "abi": [
    {
      "inputs": [
        {
          "internalType": "uint256",
          "name": "_initialSupply",
          "type": "uint256"
        }
      ],
      "stateMutability": "nonpayable",
      "type": "constructor"
    },
    {
      "anonymous": false,
      "inputs": [
        {
          "indexed": true,
          "internalType": "address",
          "name": "owner",
          "type": "address"
        },
        {
          "indexed": true,
          "internalType": "address",
          "name": "spender",
          "type": "address"
        },
        {
          "indexed": false,
          "internalType": "uint256",
          "name": "value",
          "type": "uint256"
        }
      ],
      "name": "Approval",
      "type": "event"
    },
    {
      "anonymous": false,
      "inputs": [
        {
          "indexed": false,
          "internalType": "address",
          "name": "from",
          "type": "address"
        },
        {
          "indexed": false,
          "internalType": "address",
          "name": "to",
          "type": "address"
        },
        {
          "indexed": false,
          "internalType": "uint256",
          "name": "amount",
          "type": "uint256"
        }
      ],
      "name": "TokeSellEvent",
      "type": "event"
    },
    {
      "anonymous": false,
      "inputs": [
        {
          "indexed": false,
          "internalType": "address",
          "name": "from",
          "type": "address"
        },
        {
          "indexed": false,
          "internalType": "address",
          "name": "to",
          "type": "address"
        },
        {
          "indexed": false,
          "internalType": "uint256",
          "name": "amount",
          "type": "uint256"
        }
      ],
      "name": "TokenBuyEvent",
      "type": "event"
    },
    {
      "anonymous": false,
      "inputs": [
        {
          "indexed": true,
          "internalType": "address",
          "name": "from",
          "type": "address"
        },
        {
          "indexed": true,
          "internalType": "address",
          "name": "to",
          "type": "address"
        },
        {
          "indexed": false,
          "internalType": "uint256",
          "name": "value",
          "type": "uint256"
        }
      ],
      "name": "Transfer",
      "type": "event"
    },
    {
      "inputs": [
        {
          "internalType": "address",
          "name": "owner",
          "type": "address"
        },
        {
          "internalType": "address",
          "name": "spender",
          "type": "address"
        }
      ],
      "name": "allowance",
      "outputs": [
        {
          "internalType": "uint256",
          "name": "",
          "type": "uint256"
        }
      ],
      "stateMutability": "view",
      "type": "function",
      "constant": true
    },
    {
      "inputs": [
        {
          "internalType": "address",
          "name": "spender",
          "type": "address"
        },
        {
          "internalType": "uint256",
          "name": "amount",
          "type": "uint256"
        }
      ],
      "name": "approve",
      "outputs": [
        {
          "internalType": "bool",
          "name": "",
          "type": "bool"
        }
      ],
      "stateMutability": "nonpayable",
      "type": "function"
    },
    {
      "inputs": [
        {
          "internalType": "address",
          "name": "account",
          "type": "address"
        }
      ],
      "name": "balanceOf",
      "outputs": [
        {
          "internalType": "uint256",
          "name": "",
          "type": "uint256"
        }
      ],
      "stateMutability": "view",
      "type": "function",
      "constant": true
    },
    {
      "inputs": [],
      "name": "decimals",
      "outputs": [
        {
          "internalType": "uint8",
          "name": "",
          "type": "uint8"
        }
      ],
      "stateMutability": "view",
      "type": "function",
      "constant": true
    },
    {
      "inputs": [
        {
          "internalType": "address",
          "name": "spender",
          "type": "address"
        },
        {
          "internalType": "uint256",
          "name": "subtractedValue",
          "type": "uint256"
        }
      ],
      "name": "decreaseAllowance",
      "outputs": [
        {
          "internalType": "bool",
          "name": "",
          "type": "bool"
        }
      ],
      "stateMutability": "nonpayable",
      "type": "function"
    },
    {
      "inputs": [
        {
          "internalType": "address",
          "name": "spender",
          "type": "address"
        },
        {
          "internalType": "uint256",
          "name": "addedValue",
          "type": "uint256"
        }
      ],
      "name": "increaseAllowance",
      "outputs": [
        {
          "internalType": "bool",
          "name": "",
          "type": "bool"
        }
      ],
      "stateMutability": "nonpayable",
      "type": "function"
    },
    {
      "inputs": [],
      "name": "name",
      "outputs": [
        {
          "internalType": "string",
          "name": "",
          "type": "string"
        }
      ],
      "stateMutability": "view",
      "type": "function",
      "constant": true
    },
    {
      "inputs": [],
      "name": "symbol",
      "outputs": [
        {
          "internalType": "string",
          "name": "",
          "type": "string"
        }
      ],
      "stateMutability": "view",
      "type": "function",
      "constant": true
    },
    {
      "inputs": [],
      "name": "totalSupply",
      "outputs": [
        {
          "internalType": "uint256",
          "name": "",
          "type": "uint256"
        }
      ],
      "stateMutability": "view",
      "type": "function",
      "constant": true
    },
    {
      "inputs": [
        {
          "internalType": "address",
          "name": "recipient",
          "type": "address"
        },
        {
          "internalType": "uint256",
          "name": "amount",
          "type": "uint256"
        }
      ],
      "name": "transfer",
      "outputs": [
        {
          "internalType": "bool",
          "name": "",
          "type": "bool"
        }
      ],
      "stateMutability": "nonpayable",
      "type": "function"
    },
    {
      "inputs": [
        {
          "internalType": "address",
          "name": "sender",
          "type": "address"
        },
        {
          "internalType": "address",
          "name": "recipient",
          "type": "address"
        },
        {
          "internalType": "uint256",
          "name": "amount",
          "type": "uint256"
        }
      ],
      "name": "transferFrom",
      "outputs": [
        {
          "internalType": "bool",
          "name": "",
          "type": "bool"
        }
      ],
      "stateMutability": "nonpayable",
      "type": "function"
    },
    {
      "inputs": [
        {
          "internalType": "string",
          "name": "_projectName",
          "type": "string"
        },
        {
          "internalType": "uint256",
          "name": "_amount",
          "type": "uint256"
        }
      ],
      "name": "buyToken",
      "outputs": [],
      "stateMutability": "payable",
      "type": "function",
      "payable": true
    },
    {
      "inputs": [
        {
          "internalType": "string",
          "name": "_projectName",
          "type": "string"
        },
        {
          "internalType": "uint256",
          "name": "_amount",
          "type": "uint256"
        }
      ],
      "name": "sellToken",
      "outputs": [],
      "stateMutability": "nonpayable",
      "type": "function"
    },
    {
      "inputs": [],
      "name": "withdrawEth",
      "outputs": [],
      "stateMutability": "nonpayable",
      "type": "function"
    },
    {
      "inputs": [
        {
          "internalType": "string",
          "name": "_projectName",
          "type": "string"
        }
      ],
      "name": "createSupportProject",
      "outputs": [
        {
          "internalType": "bool",
          "name": "result",
          "type": "bool"
        },
        {
          "internalType": "uint256",
          "name": "id",
          "type": "uint256"
        }
      ],
      "stateMutability": "nonpayable",
      "type": "function"
    },
    {
      "inputs": [
        {
          "internalType": "address",
          "name": "recipient",
          "type": "address"
        },
        {
          "internalType": "uint256",
          "name": "amount",
          "type": "uint256"
        }
      ],
      "name": "mint",
      "outputs": [],
      "stateMutability": "nonpayable",
      "type": "function"
    }
  ],
  "bytecode": "0x60806040523480156200001157600080fd5b5060405162002c1a38038062002c1a83398181016040528101906200003791906200037b565b6040518060400160405280600c81526020017f53757070617274546f6b656e00000000000000000000000000000000000000008152506040518060400160405280600481526020017f53415254000000000000000000000000000000000000000000000000000000008152508160039080519060200190620000bb929190620002b4565b508060049080519060200190620000d4929190620002b4565b505050620000e933826200013160201b60201c565b33600760006101000a81548173ffffffffffffffffffffffffffffffffffffffff021916908373ffffffffffffffffffffffffffffffffffffffff160217905550506200056d565b600073ffffffffffffffffffffffffffffffffffffffff168273ffffffffffffffffffffffffffffffffffffffff161415620001a4576040517f08c379a00000000000000000000000000000000000000000000000000000000081526004016200019b90620003df565b60405180910390fd5b620001b860008383620002aa60201b60201c565b8060026000828254620001cc91906200042f565b92505081905550806000808473ffffffffffffffffffffffffffffffffffffffff1673ffffffffffffffffffffffffffffffffffffffff16815260200190815260200160002060008282546200022391906200042f565b925050819055508173ffffffffffffffffffffffffffffffffffffffff16600073ffffffffffffffffffffffffffffffffffffffff167fddf252ad1be2c89b69c2b068fc378daa952ba7f163c4a11628f55a4df523b3ef836040516200028a919062000401565b60405180910390a3620002a660008383620002af60201b60201c565b5050565b505050565b505050565b828054620002c29062000496565b90600052602060002090601f016020900481019282620002e6576000855562000332565b82601f106200030157805160ff191683800117855562000332565b8280016001018555821562000332579182015b828111156200033157825182559160200191906001019062000314565b5b50905062000341919062000345565b5090565b5b808211156200036057600081600090555060010162000346565b5090565b600081519050620003758162000553565b92915050565b6000602082840312156200038e57600080fd5b60006200039e8482850162000364565b91505092915050565b6000620003b6601f836200041e565b9150620003c3826200052a565b602082019050919050565b620003d9816200048c565b82525050565b60006020820190508181036000830152620003fa81620003a7565b9050919050565b6000602082019050620004186000830184620003ce565b92915050565b600082825260208201905092915050565b60006200043c826200048c565b915062000449836200048c565b9250827fffffffffffffffffffffffffffffffffffffffffffffffffffffffffffffffff03821115620004815762000480620004cc565b5b828201905092915050565b6000819050919050565b60006002820490506001821680620004af57607f821691505b60208210811415620004c657620004c5620004fb565b5b50919050565b7f4e487b7100000000000000000000000000000000000000000000000000000000600052601160045260246000fd5b7f4e487b7100000000000000000000000000000000000000000000000000000000600052602260045260246000fd5b7f45524332303a206d696e7420746f20746865207a65726f206164647265737300600082015250565b6200055e816200048c565b81146200056a57600080fd5b50565b61269d806200057d6000396000f3fe6080604052600436106100f35760003560e01c806340c10f191161008a578063a0ef91df11610059578063a0ef91df14610344578063a457c2d71461035b578063a9059cbb14610398578063dd62ed3e146103d5576100f3565b806340c10f191461028a57806370a08231146102b357806393990aa6146102f057806395d89b4114610319576100f3565b806318160ddd116100c657806318160ddd146101ba57806323b872dd146101e5578063313ce56714610222578063395093511461024d576100f3565b806306fdde03146100f8578063095ea7b31461012357806309be77071461016057806309e4e1d21461017c575b600080fd5b34801561010457600080fd5b5061010d610412565b60405161011a9190611da0565b60405180910390f35b34801561012f57600080fd5b5061014a60048036038101906101459190611907565b6104a4565b6040516101579190611d5c565b60405180910390f35b61017a60048036038101906101759190611943565b6104c2565b005b34801561018857600080fd5b506101a3600480360381019061019e919061199b565b6106ac565b6040516101b1929190611d77565b60405180910390f35b3480156101c657600080fd5b506101cf610794565b6040516101dc9190611f42565b60405180910390f35b3480156101f157600080fd5b5061020c600480360381019061020791906118b8565b61079e565b6040516102199190611d5c565b60405180910390f35b34801561022e57600080fd5b50610237610896565b6040516102449190611f5d565b60405180910390f35b34801561025957600080fd5b50610274600480360381019061026f9190611907565b61089f565b6040516102819190611d5c565b60405180910390f35b34801561029657600080fd5b506102b160048036038101906102ac9190611907565b61094b565b005b3480156102bf57600080fd5b506102da60048036038101906102d59190611853565b6109e9565b6040516102e79190611f42565b60405180910390f35b3480156102fc57600080fd5b50610317600480360381019061031291906119dc565b610a31565b005b34801561032557600080fd5b5061032e610d72565b60405161033b9190611da0565b60405180910390f35b34801561035057600080fd5b50610359610e04565b005b34801561036757600080fd5b50610382600480360381019061037d9190611907565b610ed7565b60405161038f9190611d5c565b60405180910390f35b3480156103a457600080fd5b506103bf60048036038101906103ba9190611907565b610fc2565b6040516103cc9190611d5c565b60405180910390f35b3480156103e157600080fd5b506103fc60048036038101906103f7919061187c565b610fe0565b6040516104099190611f42565b60405180910390f35b60606003805461042190612161565b80601f016020809104026020016040519081016040528092919081815260200182805461044d90612161565b801561049a5780601f1061046f5761010080835404028352916020019161049a565b820191906000526020600020905b81548152906001019060200180831161047d57829003601f168201915b5050505050905090565b60006104b86104b1611067565b848461106f565b6001905092915050565b60008111610505576040517f08c379a00000000000000000000000000000000000000000000000000000000081526004016104fc90611ee2565b60405180910390fd5b600080610535600760009054906101000a900473ffffffffffffffffffffffffffffffffffffffff16338561079e565b5061058385858080601f016020809104026020016040519081016040528093929190818152602001838380828437600081840152601f19601f8201169050808301925050505050505061123a565b809250819350505081156105f85782600682815481106105cc577f4e487b7100000000000000000000000000000000000000000000000000000000600052603260045260246000fd5b906000526020600020906002020160010160008282546105ec919061200a565b92505081905550610648565b61064585858080601f016020809104026020016040519081016040528093929190818152602001838380828437600081840152601f19601f820116905080830192505050505050506106ac565b50505b7f0c1cc81830bc581fcd6c337a383ffcef5f7c5784f58ba6f095a59ddebbe8fe55600760009054906101000a900473ffffffffffffffffffffffffffffffffffffffff16338560405161069d93929190611cee565b60405180910390a15050505050565b60008060006106ba8461123a565b50809150506000151581151514610706576040517f08c379a00000000000000000000000000000000000000000000000000000000081526004016106fd90611e82565b60405180910390fd5b6000604051806040016040528086815260200160008152509050600681908060018154018082558091505060019003906000526020600020906002020160009091909190915060008201518160000190805190602001906107689291906116d4565b5060208201518160010155505060016006805490506107879190612060565b9250600193505050915091565b6000600254905090565b60006107ab8484846112e9565b6000600160008673ffffffffffffffffffffffffffffffffffffffff1673ffffffffffffffffffffffffffffffffffffffff16815260200190815260200160002060006107f6611067565b73ffffffffffffffffffffffffffffffffffffffff1673ffffffffffffffffffffffffffffffffffffffff16815260200190815260200160002054905082811015610876576040517f08c379a000000000000000000000000000000000000000000000000000000000815260040161086d90611e62565b60405180910390fd5b61088a85610882611067565b85840361106f565b60019150509392505050565b60006012905090565b60006109416108ac611067565b8484600160006108ba611067565b73ffffffffffffffffffffffffffffffffffffffff1673ffffffffffffffffffffffffffffffffffffffff16815260200190815260200160002060008873ffffffffffffffffffffffffffffffffffffffff1673ffffffffffffffffffffffffffffffffffffffff1681526020019081526020016000205461093c919061200a565b61106f565b6001905092915050565b600760009054906101000a900473ffffffffffffffffffffffffffffffffffffffff1673ffffffffffffffffffffffffffffffffffffffff163373ffffffffffffffffffffffffffffffffffffffff16146109db576040517f08c379a00000000000000000000000000000000000000000000000000000000081526004016109d290611de2565b60405180910390fd5b6109e5828261156a565b5050565b60008060008373ffffffffffffffffffffffffffffffffffffffff1673ffffffffffffffffffffffffffffffffffffffff168152602001908152602001600020549050919050565b600080610a3d8461123a565b80925081935050506001151582151514610a8c576040517f08c379a0000000000000000000000000000000000000000000000000000000008152600401610a8390611e42565b60405180910390fd5b6000600560003373ffffffffffffffffffffffffffffffffffffffff1673ffffffffffffffffffffffffffffffffffffffff168152602001908152602001600020805480602002602001604051908101604052809291908181526020016000905b82821015610bbb5783829060005260206000209060020201604051806040016040529081600082018054610b2090612161565b80601f0160208091040260200160405190810160405280929190818152602001828054610b4c90612161565b8015610b995780601f10610b6e57610100808354040283529160200191610b99565b820191906000526020600020905b815481529060010190602001808311610b7c57829003601f168201915b5050505050815260200160018201548152505081526020019060010190610aed565b50505050905060005b8151811015610c94578580519060200120828281518110610c0e577f4e487b7100000000000000000000000000000000000000000000000000000000600052603260045260246000fd5b602002602001015160000151805190602001201415610c815784828281518110610c61577f4e487b7100000000000000000000000000000000000000000000000000000000600052603260045260246000fd5b6020026020010151602001818151610c799190612060565b915081815250505b8080610c8c906121c4565b915050610bc4565b5083600860003373ffffffffffffffffffffffffffffffffffffffff1673ffffffffffffffffffffffffffffffffffffffff16815260200190815260200160002081905550610d05600760009054906101000a900473ffffffffffffffffffffffffffffffffffffffff1685610fc2565b50610d0e610e04565b7fc2738af0356567eb933732e08b258512cebe84f541c47a53b47839930688038533600760009054906101000a900473ffffffffffffffffffffffffffffffffffffffff1686604051610d6393929190611d25565b60405180910390a15050505050565b606060048054610d8190612161565b80601f0160208091040260200160405190810160405280929190818152602001828054610dad90612161565b8015610dfa5780601f10610dcf57610100808354040283529160200191610dfa565b820191906000526020600020905b815481529060010190602001808311610ddd57829003601f168201915b5050505050905090565b6000600860003373ffffffffffffffffffffffffffffffffffffffff1673ffffffffffffffffffffffffffffffffffffffff1681526020019081526020016000205490506000600860003373ffffffffffffffffffffffffffffffffffffffff1673ffffffffffffffffffffffffffffffffffffffff168152602001908152602001600020819055503373ffffffffffffffffffffffffffffffffffffffff166108fc829081150290604051600060405180830381858888f19350505050158015610ed3573d6000803e3d6000fd5b5050565b60008060016000610ee6611067565b73ffffffffffffffffffffffffffffffffffffffff1673ffffffffffffffffffffffffffffffffffffffff16815260200190815260200160002060008573ffffffffffffffffffffffffffffffffffffffff1673ffffffffffffffffffffffffffffffffffffffff16815260200190815260200160002054905082811015610fa3576040517f08c379a0000000000000000000000000000000000000000000000000000000008152600401610f9a90611f02565b60405180910390fd5b610fb7610fae611067565b8585840361106f565b600191505092915050565b6000610fd6610fcf611067565b84846112e9565b6001905092915050565b6000600160008473ffffffffffffffffffffffffffffffffffffffff1673ffffffffffffffffffffffffffffffffffffffff16815260200190815260200160002060008373ffffffffffffffffffffffffffffffffffffffff1673ffffffffffffffffffffffffffffffffffffffff16815260200190815260200160002054905092915050565b600033905090565b600073ffffffffffffffffffffffffffffffffffffffff168373ffffffffffffffffffffffffffffffffffffffff1614156110df576040517f08c379a00000000000000000000000000000000000000000000000000000000081526004016110d690611ec2565b60405180910390fd5b600073ffffffffffffffffffffffffffffffffffffffff168273ffffffffffffffffffffffffffffffffffffffff16141561114f576040517f08c379a000000000000000000000000000000000000000000000000000000000815260040161114690611e02565b60405180910390fd5b80600160008573ffffffffffffffffffffffffffffffffffffffff1673ffffffffffffffffffffffffffffffffffffffff16815260200190815260200160002060008473ffffffffffffffffffffffffffffffffffffffff1673ffffffffffffffffffffffffffffffffffffffff168152602001908152602001600020819055508173ffffffffffffffffffffffffffffffffffffffff168373ffffffffffffffffffffffffffffffffffffffff167f8c5be1e5ebec7d5bd14f71427d1e84f3dd0314c0f7b2291e5b200ac8c7c3b9258360405161122d9190611f42565b60405180910390a3505050565b60008060005b6006805490508110156112db5783805190602001206006828154811061128f577f4e487b7100000000000000000000000000000000000000000000000000000000600052603260045260246000fd5b90600052602060002090600202016000016040516112ad9190611cd7565b604051809103902014156112c85760018192509250506112e4565b80806112d3906121c4565b915050611240565b50600080915091505b915091565b600073ffffffffffffffffffffffffffffffffffffffff168373ffffffffffffffffffffffffffffffffffffffff161415611359576040517f08c379a000000000000000000000000000000000000000000000000000000000815260040161135090611ea2565b60405180910390fd5b600073ffffffffffffffffffffffffffffffffffffffff168273ffffffffffffffffffffffffffffffffffffffff1614156113c9576040517f08c379a00000000000000000000000000000000000000000000000000000000081526004016113c090611dc2565b60405180910390fd5b6113d48383836116ca565b60008060008573ffffffffffffffffffffffffffffffffffffffff1673ffffffffffffffffffffffffffffffffffffffff1681526020019081526020016000205490508181101561145a576040517f08c379a000000000000000000000000000000000000000000000000000000000815260040161145190611e22565b60405180910390fd5b8181036000808673ffffffffffffffffffffffffffffffffffffffff1673ffffffffffffffffffffffffffffffffffffffff16815260200190815260200160002081905550816000808573ffffffffffffffffffffffffffffffffffffffff1673ffffffffffffffffffffffffffffffffffffffff16815260200190815260200160002060008282546114ed919061200a565b925050819055508273ffffffffffffffffffffffffffffffffffffffff168473ffffffffffffffffffffffffffffffffffffffff167fddf252ad1be2c89b69c2b068fc378daa952ba7f163c4a11628f55a4df523b3ef846040516115519190611f42565b60405180910390a36115648484846116cf565b50505050565b600073ffffffffffffffffffffffffffffffffffffffff168273ffffffffffffffffffffffffffffffffffffffff1614156115da576040517f08c379a00000000000000000000000000000000000000000000000000000000081526004016115d190611f22565b60405180910390fd5b6115e6600083836116ca565b80600260008282546115f8919061200a565b92505081905550806000808473ffffffffffffffffffffffffffffffffffffffff1673ffffffffffffffffffffffffffffffffffffffff168152602001908152602001600020600082825461164d919061200a565b925050819055508173ffffffffffffffffffffffffffffffffffffffff16600073ffffffffffffffffffffffffffffffffffffffff167fddf252ad1be2c89b69c2b068fc378daa952ba7f163c4a11628f55a4df523b3ef836040516116b29190611f42565b60405180910390a36116c6600083836116cf565b5050565b505050565b505050565b8280546116e090612161565b90600052602060002090601f0160209004810192826117025760008555611749565b82601f1061171b57805160ff1916838001178555611749565b82800160010185558215611749579182015b8281111561174857825182559160200191906001019061172d565b5b509050611756919061175a565b5090565b5b8082111561177357600081600090555060010161175b565b5090565b600061178a61178584611f9d565b611f78565b9050828152602081018484840111156117a257600080fd5b6117ad84828561211f565b509392505050565b6000813590506117c481612639565b92915050565b60008083601f8401126117dc57600080fd5b8235905067ffffffffffffffff8111156117f557600080fd5b60208301915083600182028301111561180d57600080fd5b9250929050565b600082601f83011261182557600080fd5b8135611835848260208601611777565b91505092915050565b60008135905061184d81612650565b92915050565b60006020828403121561186557600080fd5b6000611873848285016117b5565b91505092915050565b6000806040838503121561188f57600080fd5b600061189d858286016117b5565b92505060206118ae858286016117b5565b9150509250929050565b6000806000606084860312156118cd57600080fd5b60006118db868287016117b5565b93505060206118ec868287016117b5565b92505060406118fd8682870161183e565b9150509250925092565b6000806040838503121561191a57600080fd5b6000611928858286016117b5565b92505060206119398582860161183e565b9150509250929050565b60008060006040848603121561195857600080fd5b600084013567ffffffffffffffff81111561197257600080fd5b61197e868287016117ca565b935093505060206119918682870161183e565b9150509250925092565b6000602082840312156119ad57600080fd5b600082013567ffffffffffffffff8111156119c757600080fd5b6119d384828501611814565b91505092915050565b600080604083850312156119ef57600080fd5b600083013567ffffffffffffffff811115611a0957600080fd5b611a1585828601611814565b9250506020611a268582860161183e565b9150509250929050565b611a39816120e9565b82525050565b611a4881612094565b82525050565b611a57816120a6565b82525050565b60008154611a6a81612161565b611a748186611fee565b94506001821660008114611a8f5760018114611aa057611ad3565b60ff19831686528186019350611ad3565b611aa985611fce565b60005b83811015611acb57815481890152600182019150602081019050611aac565b838801955050505b50505092915050565b6000611ae782611fe3565b611af18185611ff9565b9350611b0181856020860161212e565b611b0a8161229a565b840191505092915050565b6000611b22602383611ff9565b9150611b2d826122ab565b604082019050919050565b6000611b45603083611ff9565b9150611b50826122fa565b604082019050919050565b6000611b68602283611ff9565b9150611b7382612349565b604082019050919050565b6000611b8b602683611ff9565b9150611b9682612398565b604082019050919050565b6000611bae602583611ff9565b9150611bb9826123e7565b604082019050919050565b6000611bd1602883611ff9565b9150611bdc82612436565b604082019050919050565b6000611bf4602a83611ff9565b9150611bff82612485565b604082019050919050565b6000611c17602583611ff9565b9150611c22826124d4565b604082019050919050565b6000611c3a602483611ff9565b9150611c4582612523565b604082019050919050565b6000611c5d602c83611ff9565b9150611c6882612572565b604082019050919050565b6000611c80602583611ff9565b9150611c8b826125c1565b604082019050919050565b6000611ca3601f83611ff9565b9150611cae82612610565b602082019050919050565b611cc2816120d2565b82525050565b611cd1816120dc565b82525050565b6000611ce38284611a5d565b915081905092915050565b6000606082019050611d036000830186611a30565b611d106020830185611a3f565b611d1d6040830184611cb9565b949350505050565b6000606082019050611d3a6000830186611a3f565b611d476020830185611a30565b611d546040830184611cb9565b949350505050565b6000602082019050611d716000830184611a4e565b92915050565b6000604082019050611d8c6000830185611a4e565b611d996020830184611cb9565b9392505050565b60006020820190508181036000830152611dba8184611adc565b905092915050565b60006020820190508181036000830152611ddb81611b15565b9050919050565b60006020820190508181036000830152611dfb81611b38565b9050919050565b60006020820190508181036000830152611e1b81611b5b565b9050919050565b60006020820190508181036000830152611e3b81611b7e565b9050919050565b60006020820190508181036000830152611e5b81611ba1565b9050919050565b60006020820190508181036000830152611e7b81611bc4565b9050919050565b60006020820190508181036000830152611e9b81611be7565b9050919050565b60006020820190508181036000830152611ebb81611c0a565b9050919050565b60006020820190508181036000830152611edb81611c2d565b9050919050565b60006020820190508181036000830152611efb81611c50565b9050919050565b60006020820190508181036000830152611f1b81611c73565b9050919050565b60006020820190508181036000830152611f3b81611c96565b9050919050565b6000602082019050611f576000830184611cb9565b92915050565b6000602082019050611f726000830184611cc8565b92915050565b6000611f82611f93565b9050611f8e8282612193565b919050565b6000604051905090565b600067ffffffffffffffff821115611fb857611fb761226b565b5b611fc18261229a565b9050602081019050919050565b60008190508160005260206000209050919050565b600081519050919050565b600081905092915050565b600082825260208201905092915050565b6000612015826120d2565b9150612020836120d2565b9250827fffffffffffffffffffffffffffffffffffffffffffffffffffffffffffffffff038211156120555761205461220d565b5b828201905092915050565b600061206b826120d2565b9150612076836120d2565b9250828210156120895761208861220d565b5b828203905092915050565b600061209f826120b2565b9050919050565b60008115159050919050565b600073ffffffffffffffffffffffffffffffffffffffff82169050919050565b6000819050919050565b600060ff82169050919050565b60006120f4826120fb565b9050919050565b60006121068261210d565b9050919050565b6000612118826120b2565b9050919050565b82818337600083830152505050565b60005b8381101561214c578082015181840152602081019050612131565b8381111561215b576000848401525b50505050565b6000600282049050600182168061217957607f821691505b6020821081141561218d5761218c61223c565b5b50919050565b61219c8261229a565b810181811067ffffffffffffffff821117156121bb576121ba61226b565b5b80604052505050565b60006121cf826120d2565b91507fffffffffffffffffffffffffffffffffffffffffffffffffffffffffffffffff8214156122025761220161220d565b5b600182019050919050565b7f4e487b7100000000000000000000000000000000000000000000000000000000600052601160045260246000fd5b7f4e487b7100000000000000000000000000000000000000000000000000000000600052602260045260246000fd5b7f4e487b7100000000000000000000000000000000000000000000000000000000600052604160045260246000fd5b6000601f19601f8301169050919050565b7f45524332303a207472616e7366657220746f20746865207a65726f206164647260008201527f6573730000000000000000000000000000000000000000000000000000000000602082015250565b7f596f7520646f206e6f742068617665207065726d697373696f6e20746f206d6960008201527f6e7420746865736520746f6b656e732100000000000000000000000000000000602082015250565b7f45524332303a20617070726f766520746f20746865207a65726f20616464726560008201527f7373000000000000000000000000000000000000000000000000000000000000602082015250565b7f45524332303a207472616e7366657220616d6f756e742065786365656473206260008201527f616c616e63650000000000000000000000000000000000000000000000000000602082015250565b7f596f75206d7573742070726f7669646520612076616c6964205f70726f6a656360008201527f744e616d65000000000000000000000000000000000000000000000000000000602082015250565b7f45524332303a207472616e7366657220616d6f756e742065786365656473206160008201527f6c6c6f77616e6365000000000000000000000000000000000000000000000000602082015250565b7f546865726520697320616c726561647920612070726f6a65637420776974682060008201527f74686973206e616d652e00000000000000000000000000000000000000000000602082015250565b7f45524332303a207472616e736665722066726f6d20746865207a65726f20616460008201527f6472657373000000000000000000000000000000000000000000000000000000602082015250565b7f45524332303a20617070726f76652066726f6d20746865207a65726f2061646460008201527f7265737300000000000000000000000000000000000000000000000000000000602082015250565b7f496e636f727265637420616d6f756e742c206d757374206265206120706f736960008201527f7469766520616d6f756e742e0000000000000000000000000000000000000000602082015250565b7f45524332303a2064656372656173656420616c6c6f77616e63652062656c6f7760008201527f207a65726f000000000000000000000000000000000000000000000000000000602082015250565b7f45524332303a206d696e7420746f20746865207a65726f206164647265737300600082015250565b61264281612094565b811461264d57600080fd5b50565b612659816120d2565b811461266457600080fd5b5056fea2646970667358221220ddcbab535270073dc1dd01170a402a5f412ba3a1a2b5f20bf7c939bc84df52dc64736f6c63430008010033",
  "immutableReferences": {},
  "source": "// SPDX-License-Identifier: MIT\npragma solidity ^0.8.1;\n\nimport \"@openzeppelin/contracts/token/ERC20/ERC20.sol\";\n\ncontract SuppartToken is ERC20 {\n    \n    modifier onlyOwner {\n        require(msg.sender == owner, \"You do not have permission to mint these tokens!\");\n        _;\n    }\n\n    event TokenBuyEvent (\n        address from,\n        address to,\n        uint256 amount\n    );\n    \n    event TokeSellEvent (\n        address from,\n        address to,\n        uint256 amount\n    );\n    \n    struct Project {\n        string name;\n        uint total;\n    }\n    \n    struct AddressFunding {\n        string name;\n        uint total;\n    }\n    \n    mapping(address => AddressFunding[]) AddressProjects;\n    Project[] ProjectTotals;\n    \n    address payable owner;\n    mapping (address => uint256) pendingWithdrawals;\n    \n\n    constructor(uint256 _initialSupply) ERC20(\"SuppartToken\", \"SART\" ) {\n        _mint(msg.sender, _initialSupply);\n        owner = payable(msg.sender);\n    }\n\n    function buyToken(string calldata _projectName, uint256 _amount) external payable {\n        \n        require(_amount > 0, \"Incorrect amount, must be a positive amount.\");\n        //require(_projectName, \"You must provide a project_name\");\n        \n        bool foundproject;\n        uint project_index;\n        \n        transferFrom(owner, msg.sender, _amount);\n        \n        (foundproject, project_index) = getProjectIndex(_projectName);\n        \n        if(foundproject) {\n            ProjectTotals[project_index].total += _amount;\n        } else {\n            createSupportProject(_projectName);\n        }\n        \n        emit TokenBuyEvent(owner, msg.sender, _amount);\n    }\n    \n    function sellToken(string memory _projectName, uint256 _amount) public {\n        \n        bool foundproject;\n        uint project_index;\n        \n        (foundproject, project_index) = getProjectIndex(_projectName);\n        \n        require(foundproject == true, 'You must provide a valid _projectName');\n        \n        AddressFunding[] memory addressfunding = AddressProjects[msg.sender];\n        \n        for(uint i = 0; i< addressfunding.length; i++) {\n            \n            if(keccak256(bytes(addressfunding[i].name)) == keccak256(bytes(_projectName))){\n                \n                //found project for this address\n                addressfunding[i].total -= _amount;\n                \n            }\n        }\n        \n        pendingWithdrawals[msg.sender] = _amount;\n        \n        transfer(owner, _amount);\n        \n        withdrawEth();\n        \n        emit TokeSellEvent(msg.sender, owner, _amount);\n    }\n    \n    function withdrawEth() public {\n        uint256 amount = pendingWithdrawals[msg.sender];\n        // Pending refund zerod before to prevent re-entrancy attacks\n        pendingWithdrawals[msg.sender] = 0;\n        payable(msg.sender).transfer(amount);\n    }\n    \n    function createSupportProject(string memory _projectName) public returns(bool result, uint id){ \n        bool foundproject;\n        \n        (foundproject, ) = getProjectIndex(_projectName);\n        \n        require(foundproject == false, \"There is already a project with this name.\");\n        \n        Project memory _newProject = Project(_projectName, 0);\n            \n        ProjectTotals.push(_newProject);\n        \n        id = ProjectTotals.length - 1;\n        \n        return (true, id);\n    }\n    \n    function getProjectIndex(string memory project_name) internal view returns(bool foundproject, uint project_index){\n        for(uint i = 0; i< ProjectTotals.length; i++) {\n            \n            if(keccak256(bytes(ProjectTotals[i].name)) == keccak256(bytes(project_name))){\n                return (true, i);\n            }\n        }\n        return (false, 0);\n    }\n    \n    function mint(address recipient, uint amount) public onlyOwner {\n        _mint(recipient, amount);\n    }\n\n}\n",
  "sourcePath": "/Users/miguelsierra/development/fintech/project-3/suppart/contracts/SuppartToken.sol",
  "compiler": {
    "name": "solc",
    "version": "0.8.1+commit.df193b15.Emscripten.clang"
  },
  "schemaVersion": "3.4.3",
  "updatedAt": "2021-11-19T03:23:55.582Z",
  "networkType": "ethereum",
  "devdoc": {
    "kind": "dev",
    "methods": {
      "allowance(address,address)": {
        "details": "See {IERC20-allowance}."
      },
      "approve(address,uint256)": {
        "details": "See {IERC20-approve}. Requirements: - `spender` cannot be the zero address."
      },
      "balanceOf(address)": {
        "details": "See {IERC20-balanceOf}."
      },
      "decimals()": {
        "details": "Returns the number of decimals used to get its user representation. For example, if `decimals` equals `2`, a balance of `505` tokens should be displayed to a user as `5.05` (`505 / 10 ** 2`). Tokens usually opt for a value of 18, imitating the relationship between Ether and Wei. This is the value {ERC20} uses, unless this function is overridden; NOTE: This information is only used for _display_ purposes: it in no way affects any of the arithmetic of the contract, including {IERC20-balanceOf} and {IERC20-transfer}."
      },
      "decreaseAllowance(address,uint256)": {
        "details": "Atomically decreases the allowance granted to `spender` by the caller. This is an alternative to {approve} that can be used as a mitigation for problems described in {IERC20-approve}. Emits an {Approval} event indicating the updated allowance. Requirements: - `spender` cannot be the zero address. - `spender` must have allowance for the caller of at least `subtractedValue`."
      },
      "increaseAllowance(address,uint256)": {
        "details": "Atomically increases the allowance granted to `spender` by the caller. This is an alternative to {approve} that can be used as a mitigation for problems described in {IERC20-approve}. Emits an {Approval} event indicating the updated allowance. Requirements: - `spender` cannot be the zero address."
      },
      "name()": {
        "details": "Returns the name of the token."
      },
      "symbol()": {
        "details": "Returns the symbol of the token, usually a shorter version of the name."
      },
      "totalSupply()": {
        "details": "See {IERC20-totalSupply}."
      },
      "transfer(address,uint256)": {
        "details": "See {IERC20-transfer}. Requirements: - `recipient` cannot be the zero address. - the caller must have a balance of at least `amount`."
      },
      "transferFrom(address,address,uint256)": {
        "details": "See {IERC20-transferFrom}. Emits an {Approval} event indicating the updated allowance. This is not required by the EIP. See the note at the beginning of {ERC20}. Requirements: - `sender` and `recipient` cannot be the zero address. - `sender` must have a balance of at least `amount`. - the caller must have allowance for ``sender``'s tokens of at least `amount`."
      }
    },
    "version": 1
  },
  "userdoc": {
    "kind": "user",
    "methods": {},
    "version": 1
  }
}